{
  "_format": "hh-sol-artifact-1",
  "contractName": "MyEpicNFT",
  "sourceName": "contracts/MyEpicNFT.sol",
  "abi": [
    {
      "inputs": [],
      "stateMutability": "nonpayable",
      "type": "constructor"
    },
    {
      "anonymous": false,
      "inputs": [
        {
          "indexed": true,
          "internalType": "address",
          "name": "owner",
          "type": "address"
        },
        {
          "indexed": true,
          "internalType": "address",
          "name": "approved",
          "type": "address"
        },
        {
          "indexed": true,
          "internalType": "uint256",
          "name": "tokenId",
          "type": "uint256"
        }
      ],
      "name": "Approval",
      "type": "event"
    },
    {
      "anonymous": false,
      "inputs": [
        {
          "indexed": true,
          "internalType": "address",
          "name": "owner",
          "type": "address"
        },
        {
          "indexed": true,
          "internalType": "address",
          "name": "operator",
          "type": "address"
        },
        {
          "indexed": false,
          "internalType": "bool",
          "name": "approved",
          "type": "bool"
        }
      ],
      "name": "ApprovalForAll",
      "type": "event"
    },
    {
      "anonymous": false,
      "inputs": [
        {
          "indexed": false,
          "internalType": "address",
          "name": "sender",
          "type": "address"
        },
        {
          "indexed": false,
          "internalType": "uint256",
          "name": "tokenId",
          "type": "uint256"
        }
      ],
      "name": "NewEpicNFTMinted",
      "type": "event"
    },
    {
      "anonymous": false,
      "inputs": [
        {
          "indexed": true,
          "internalType": "address",
          "name": "from",
          "type": "address"
        },
        {
          "indexed": true,
          "internalType": "address",
          "name": "to",
          "type": "address"
        },
        {
          "indexed": true,
          "internalType": "uint256",
          "name": "tokenId",
          "type": "uint256"
        }
      ],
      "name": "Transfer",
      "type": "event"
    },
    {
      "inputs": [
        {
          "internalType": "address",
          "name": "to",
          "type": "address"
        },
        {
          "internalType": "uint256",
          "name": "tokenId",
          "type": "uint256"
        }
      ],
      "name": "approve",
      "outputs": [],
      "stateMutability": "nonpayable",
      "type": "function"
    },
    {
      "inputs": [
        {
          "internalType": "address",
          "name": "owner",
          "type": "address"
        }
      ],
      "name": "balanceOf",
      "outputs": [
        {
          "internalType": "uint256",
          "name": "",
          "type": "uint256"
        }
      ],
      "stateMutability": "view",
      "type": "function"
    },
    {
      "inputs": [
        {
          "internalType": "uint256",
          "name": "tokenId",
          "type": "uint256"
        }
      ],
      "name": "getApproved",
      "outputs": [
        {
          "internalType": "address",
          "name": "",
          "type": "address"
        }
      ],
      "stateMutability": "view",
      "type": "function"
    },
    {
      "inputs": [],
      "name": "getMintedCount",
      "outputs": [
        {
          "internalType": "uint256",
          "name": "",
          "type": "uint256"
        }
      ],
      "stateMutability": "view",
      "type": "function"
    },
    {
      "inputs": [
        {
          "internalType": "address",
          "name": "owner",
          "type": "address"
        },
        {
          "internalType": "address",
          "name": "operator",
          "type": "address"
        }
      ],
      "name": "isApprovedForAll",
      "outputs": [
        {
          "internalType": "bool",
          "name": "",
          "type": "bool"
        }
      ],
      "stateMutability": "view",
      "type": "function"
    },
    {
      "inputs": [],
      "name": "makeAnEpicNFT",
      "outputs": [],
      "stateMutability": "nonpayable",
      "type": "function"
    },
    {
      "inputs": [],
      "name": "name",
      "outputs": [
        {
          "internalType": "string",
          "name": "",
          "type": "string"
        }
      ],
      "stateMutability": "view",
      "type": "function"
    },
    {
      "inputs": [
        {
          "internalType": "uint256",
          "name": "tokenId",
          "type": "uint256"
        }
      ],
      "name": "ownerOf",
      "outputs": [
        {
          "internalType": "address",
          "name": "",
          "type": "address"
        }
      ],
      "stateMutability": "view",
      "type": "function"
    },
    {
      "inputs": [
        {
          "internalType": "uint256",
          "name": "tokenId",
          "type": "uint256"
        }
      ],
      "name": "pickRandomColor",
      "outputs": [
        {
          "internalType": "string",
          "name": "",
          "type": "string"
        }
      ],
      "stateMutability": "view",
      "type": "function"
    },
    {
      "inputs": [
        {
          "internalType": "uint256",
          "name": "tokenId",
          "type": "uint256"
        }
      ],
      "name": "pickRandomFirstWord",
      "outputs": [
        {
          "internalType": "string",
          "name": "",
          "type": "string"
        }
      ],
      "stateMutability": "view",
      "type": "function"
    },
    {
      "inputs": [
        {
          "internalType": "uint256",
          "name": "tokenId",
          "type": "uint256"
        }
      ],
      "name": "pickRandomSecondWord",
      "outputs": [
        {
          "internalType": "string",
          "name": "",
          "type": "string"
        }
      ],
      "stateMutability": "view",
      "type": "function"
    },
    {
      "inputs": [
        {
          "internalType": "uint256",
          "name": "tokenId",
          "type": "uint256"
        }
      ],
      "name": "pickRandomThirdWord",
      "outputs": [
        {
          "internalType": "string",
          "name": "",
          "type": "string"
        }
      ],
      "stateMutability": "view",
      "type": "function"
    },
    {
      "inputs": [
        {
          "internalType": "address",
          "name": "from",
          "type": "address"
        },
        {
          "internalType": "address",
          "name": "to",
          "type": "address"
        },
        {
          "internalType": "uint256",
          "name": "tokenId",
          "type": "uint256"
        }
      ],
      "name": "safeTransferFrom",
      "outputs": [],
      "stateMutability": "nonpayable",
      "type": "function"
    },
    {
      "inputs": [
        {
          "internalType": "address",
          "name": "from",
          "type": "address"
        },
        {
          "internalType": "address",
          "name": "to",
          "type": "address"
        },
        {
          "internalType": "uint256",
          "name": "tokenId",
          "type": "uint256"
        },
        {
          "internalType": "bytes",
          "name": "_data",
          "type": "bytes"
        }
      ],
      "name": "safeTransferFrom",
      "outputs": [],
      "stateMutability": "nonpayable",
      "type": "function"
    },
    {
      "inputs": [
        {
          "internalType": "address",
          "name": "operator",
          "type": "address"
        },
        {
          "internalType": "bool",
          "name": "approved",
          "type": "bool"
        }
      ],
      "name": "setApprovalForAll",
      "outputs": [],
      "stateMutability": "nonpayable",
      "type": "function"
    },
    {
      "inputs": [
        {
          "internalType": "bytes4",
          "name": "interfaceId",
          "type": "bytes4"
        }
      ],
      "name": "supportsInterface",
      "outputs": [
        {
          "internalType": "bool",
          "name": "",
          "type": "bool"
        }
      ],
      "stateMutability": "view",
      "type": "function"
    },
    {
      "inputs": [],
      "name": "symbol",
      "outputs": [
        {
          "internalType": "string",
          "name": "",
          "type": "string"
        }
      ],
      "stateMutability": "view",
      "type": "function"
    },
    {
      "inputs": [
        {
          "internalType": "uint256",
          "name": "tokenId",
          "type": "uint256"
        }
      ],
      "name": "tokenURI",
      "outputs": [
        {
          "internalType": "string",
          "name": "",
          "type": "string"
        }
      ],
      "stateMutability": "view",
      "type": "function"
    },
    {
      "inputs": [
        {
          "internalType": "address",
          "name": "from",
          "type": "address"
        },
        {
          "internalType": "address",
          "name": "to",
          "type": "address"
        },
        {
          "internalType": "uint256",
          "name": "tokenId",
          "type": "uint256"
        }
      ],
      "name": "transferFrom",
      "outputs": [],
      "stateMutability": "nonpayable",
      "type": "function"
    }
  ],
  "bytecode": "0x608060405260405180610100016040528060d3815260200162004c3860d39139600890805190602001906200003692919062000ccb565b5060405180608001604052806056815260200162004d0b60569139600990805190602001906200006892919062000ccb565b506040518061018001604052806040518060400160405280600381526020017f726564000000000000000000000000000000000000000000000000000000000081525081526020016040518060400160405280600581526020017f677265656e00000000000000000000000000000000000000000000000000000081525081526020016040518060400160405280600481526020017f626c75650000000000000000000000000000000000000000000000000000000081525081526020016040518060400160405280600681526020017f79656c6c6f77000000000000000000000000000000000000000000000000000081525081526020016040518060400160405280600681526020017f707572706c65000000000000000000000000000000000000000000000000000081525081526020016040518060400160405280600781526020017f6d6167656e74610000000000000000000000000000000000000000000000000081525081526020016040518060400160405280600581526020017f62726f776e00000000000000000000000000000000000000000000000000000081525081526020016040518060400160405280600481526020017f70696e6b0000000000000000000000000000000000000000000000000000000081525081526020016040518060400160405280600681526020017f6f72616e6765000000000000000000000000000000000000000000000000000081525081526020016040518060400160405280600481526020017f7465616c0000000000000000000000000000000000000000000000000000000081525081526020016040518060400160405280600581526020017f62726f776e00000000000000000000000000000000000000000000000000000081525081526020016040518060400160405280600481526020017f6461726b00000000000000000000000000000000000000000000000000000000815250815250600a90600c6200034992919062000d5c565b506040518061022001604052806040518060400160405280600981526020017f64616e6765726f7573000000000000000000000000000000000000000000000081525081526020016040518060400160405280600581526020017f637275656c00000000000000000000000000000000000000000000000000000081525081526020016040518060400160405280600581526020017f6372617a7900000000000000000000000000000000000000000000000000000081525081526020016040518060400160405280600981526020017f646973677573746564000000000000000000000000000000000000000000000081525081526020016040518060400160405280600481526020017f647261620000000000000000000000000000000000000000000000000000000081525081526020016040518060400160405280600681526020017f66696c746879000000000000000000000000000000000000000000000000000081525081526020016040518060400160405280600881526020017f656e6f726d6f757300000000000000000000000000000000000000000000000081525081526020016040518060400160405280600781526020017f646f676c696b650000000000000000000000000000000000000000000000000081525081526020016040518060400160405280600881526020017f736c75676769736800000000000000000000000000000000000000000000000081525081526020016040518060400160405280600681526020017f736d6f6f7468000000000000000000000000000000000000000000000000000081525081526020016040518060400160405280600881526020017f63617574696f757300000000000000000000000000000000000000000000000081525081526020016040518060400160405280600881526020017f636861726d696e6700000000000000000000000000000000000000000000000081525081526020016040518060400160405280600781526020017f616e78696f75730000000000000000000000000000000000000000000000000081525081526020016040518060400160405280600681526020017f627269676874000000000000000000000000000000000000000000000000000081525081526020016040518060400160405280600681526020017f627261696e79000000000000000000000000000000000000000000000000000081525081526020016040518060400160405280600981526020017f636f6d626174697665000000000000000000000000000000000000000000000081525081526020016040518060400160405280600681526020017f6372656570790000000000000000000000000000000000000000000000000000815250815250600b9060116200075192919062000dc3565b506040518061012001604052806040518060400160405280600581526020017f737765657400000000000000000000000000000000000000000000000000000081525081526020016040518060400160405280600681526020017f636974727573000000000000000000000000000000000000000000000000000081525081526020016040518060400160405280600581526020017f6d7573747900000000000000000000000000000000000000000000000000000081525081526020016040518060400160405280600481526020017f746172740000000000000000000000000000000000000000000000000000000081525081526020016040518060400160405280600781526020017f7665676574616c0000000000000000000000000000000000000000000000000081525081526020016040518060400160405280600481526020017f736f75720000000000000000000000000000000000000000000000000000000081525081526020016040518060400160405280600781526020017f65617274686c790000000000000000000000000000000000000000000000000081525081526020016040518060400160405280600581526020017f6a616d6d7900000000000000000000000000000000000000000000000000000081525081526020016040518060400160405280600581526020017f736d6f6b79000000000000000000000000000000000000000000000000000000815250815250600c9060096200098192919062000e2a565b506040518060c001604052806040518060400160405280600381526020017f726564000000000000000000000000000000000000000000000000000000000081525081526020016040518060400160405280600781526020017f233038433241380000000000000000000000000000000000000000000000000081525081526020016040518060400160405280600581526020017f626c61636b00000000000000000000000000000000000000000000000000000081525081526020016040518060400160405280600681526020017f79656c6c6f77000000000000000000000000000000000000000000000000000081525081526020016040518060400160405280600481526020017f626c75650000000000000000000000000000000000000000000000000000000081525081526020016040518060400160405280600581526020017f677265656e000000000000000000000000000000000000000000000000000000815250815250600d90600662000aff92919062000e91565b5034801562000b0d57600080fd5b506040518060400160405280600881526020017f446f6e75744e46540000000000000000000000000000000000000000000000008152506040518060400160405280600581526020017f446f6e7574000000000000000000000000000000000000000000000000000000815250816000908051906020019062000b9292919062000ccb565b50806001908051906020019062000bab92919062000ccb565b50505062000bf96040518060400160405280601e81526020017f54686973206973206d79204e465420636f6e74726163742e20576f616821000081525062000bff60201b620013a41760201c565b620010b2565b62000c9f8160405160240162000c16919062000fc6565b6040516020818303038152906040527f41304fac000000000000000000000000000000000000000000000000000000007bffffffffffffffffffffffffffffffffffffffffffffffffffffffff19166020820180517bffffffffffffffffffffffffffffffffffffffffffffffffffffffff838183161783525050505062000ca260201b60201c565b50565b60008151905060006a636f6e736f6c652e6c6f679050602083016000808483855afa5050505050565b82805462000cd9906200103c565b90600052602060002090601f01602090048101928262000cfd576000855562000d49565b82601f1062000d1857805160ff191683800117855562000d49565b8280016001018555821562000d49579182015b8281111562000d4857825182559160200191906001019062000d2b565b5b50905062000d58919062000ef8565b5090565b82805482825590600052602060002090810192821562000db0579160200282015b8281111562000daf57825182908051906020019062000d9e92919062000ccb565b509160200191906001019062000d7d565b5b50905062000dbf919062000f17565b5090565b82805482825590600052602060002090810192821562000e17579160200282015b8281111562000e1657825182908051906020019062000e0592919062000ccb565b509160200191906001019062000de4565b5b50905062000e26919062000f17565b5090565b82805482825590600052602060002090810192821562000e7e579160200282015b8281111562000e7d57825182908051906020019062000e6c92919062000ccb565b509160200191906001019062000e4b565b5b50905062000e8d919062000f17565b5090565b82805482825590600052602060002090810192821562000ee5579160200282015b8281111562000ee457825182908051906020019062000ed392919062000ccb565b509160200191906001019062000eb2565b5b50905062000ef4919062000f17565b5090565b5b8082111562000f1357600081600090555060010162000ef9565b5090565b5b8082111562000f3b576000818162000f31919062000f3f565b5060010162000f18565b5090565b50805462000f4d906200103c565b6000825580601f1062000f61575062000f82565b601f01602090049060005260206000209081019062000f81919062000ef8565b5b50565b600062000f928262000fea565b62000f9e818562000ff5565b935062000fb081856020860162001006565b62000fbb81620010a1565b840191505092915050565b6000602082019050818103600083015262000fe2818462000f85565b905092915050565b600081519050919050565b600082825260208201905092915050565b60005b838110156200102657808201518184015260208101905062001009565b8381111562001036576000848401525b50505050565b600060028204905060018216806200105557607f821691505b602082108114156200106c576200106b62001072565b5b50919050565b7f4e487b7100000000000000000000000000000000000000000000000000000000600052602260045260246000fd5b6000601f19601f8301169050919050565b613b7680620010c26000396000f3fe608060405234801561001057600080fd5b50600436106101215760003560e01c806370a08231116100ad578063c575757a11610071578063c575757a1461033e578063c87b56dd1461036e578063de9d132f1461039e578063e985e9c5146103a8578063ebc9bd3b146103d857610121565b806370a082311461028857806395d89b41146102b8578063a22cb465146102d6578063b187301f146102f2578063b88d4fde1461032257610121565b806323b872dd116100f457806323b872dd146101c05780632de38d68146101dc57806342842e0e1461020c578063514dc8c6146102285780636352211e1461025857610121565b806301ffc9a71461012657806306fdde0314610156578063081812fc14610174578063095ea7b3146101a4575b600080fd5b610140600480360381019061013b91906126d3565b6103f6565b60405161014d91906133bc565b60405180910390f35b61015e6104d8565b60405161016b91906133d7565b60405180910390f35b61018e60048036038101906101899190612725565b61056a565b60405161019b919061332c565b60405180910390f35b6101be60048036038101906101b99190612697565b6105ef565b005b6101da60048036038101906101d59190612591565b610707565b005b6101f660048036038101906101f19190612725565b610767565b60405161020391906133d7565b60405180910390f35b61022660048036038101906102219190612591565b610885565b005b610242600480360381019061023d9190612725565b6108a5565b60405161024f91906133d7565b60405180910390f35b610272600480360381019061026d9190612725565b6109c3565b60405161027f919061332c565b60405180910390f35b6102a2600480360381019061029d919061252c565b610a75565b6040516102af9190613667565b60405180910390f35b6102c0610b2d565b6040516102cd91906133d7565b60405180910390f35b6102f060048036038101906102eb919061265b565b610bbf565b005b61030c60048036038101906103079190612725565b610d40565b60405161031991906133d7565b60405180910390f35b61033c600480360381019061033791906125e0565b610e5e565b005b61035860048036038101906103539190612725565b610ec0565b60405161036591906133d7565b60405180910390f35b61038860048036038101906103839190612725565b610fde565b60405161039591906133d7565b60405180910390f35b6103a6611130565b005b6103c260048036038101906103bd9190612555565b6112bb565b6040516103cf91906133bc565b60405180910390f35b6103e061134f565b6040516103ed9190613667565b60405180910390f35b60007f80ac58cd000000000000000000000000000000000000000000000000000000007bffffffffffffffffffffffffffffffffffffffffffffffffffffffff1916827bffffffffffffffffffffffffffffffffffffffffffffffffffffffff191614806104c157507f5b5e139f000000000000000000000000000000000000000000000000000000007bffffffffffffffffffffffffffffffffffffffffffffffffffffffff1916827bffffffffffffffffffffffffffffffffffffffffffffffffffffffff1916145b806104d157506104d08261143d565b5b9050919050565b6060600080546104e790613906565b80601f016020809104026020016040519081016040528092919081815260200182805461051390613906565b80156105605780601f1061053557610100808354040283529160200191610560565b820191906000526020600020905b81548152906001019060200180831161054357829003601f168201915b5050505050905090565b6000610575826114a7565b6105b4576040517f08c379a00000000000000000000000000000000000000000000000000000000081526004016105ab906135c7565b60405180910390fd5b6004600083815260200190815260200160002060009054906101000a900473ffffffffffffffffffffffffffffffffffffffff169050919050565b60006105fa826109c3565b90508073ffffffffffffffffffffffffffffffffffffffff168373ffffffffffffffffffffffffffffffffffffffff16141561066b576040517f08c379a000000000000000000000000000000000000000000000000000000000815260040161066290613627565b60405180910390fd5b8073ffffffffffffffffffffffffffffffffffffffff1661068a611513565b73ffffffffffffffffffffffffffffffffffffffff1614806106b957506106b8816106b3611513565b6112bb565b5b6106f8576040517f08c379a00000000000000000000000000000000000000000000000000000000081526004016106ef90613507565b60405180910390fd5b610702838361151b565b505050565b610718610712611513565b826115d4565b610757576040517f08c379a000000000000000000000000000000000000000000000000000000000815260040161074e90613647565b60405180910390fd5b6107628383836116b2565b505050565b6060600061079b6107778461190e565b60405160200161078791906132c6565b604051602081830303815290604052611abb565b9050600a80549050816107ae9190613981565b9050600a81815481106107ea577f4e487b7100000000000000000000000000000000000000000000000000000000600052603260045260246000fd5b9060005260206000200180546107ff90613906565b80601f016020809104026020016040519081016040528092919081815260200182805461082b90613906565b80156108785780601f1061084d57610100808354040283529160200191610878565b820191906000526020600020905b81548152906001019060200180831161085b57829003601f168201915b5050505050915050919050565b6108a083838360405180602001604052806000815250610e5e565b505050565b606060006108d96108b58461190e565b6040516020016108c5919061330a565b604051602081830303815290604052611abb565b9050600d80549050816108ec9190613981565b9050600d8181548110610928577f4e487b7100000000000000000000000000000000000000000000000000000000600052603260045260246000fd5b90600052602060002001805461093d90613906565b80601f016020809104026020016040519081016040528092919081815260200182805461096990613906565b80156109b65780601f1061098b576101008083540402835291602001916109b6565b820191906000526020600020905b81548152906001019060200180831161099957829003601f168201915b5050505050915050919050565b6000806002600084815260200190815260200160002060009054906101000a900473ffffffffffffffffffffffffffffffffffffffff169050600073ffffffffffffffffffffffffffffffffffffffff168173ffffffffffffffffffffffffffffffffffffffff161415610a6c576040517f08c379a0000000000000000000000000000000000000000000000000000000008152600401610a6390613547565b60405180910390fd5b80915050919050565b60008073ffffffffffffffffffffffffffffffffffffffff168273ffffffffffffffffffffffffffffffffffffffff161415610ae6576040517f08c379a0000000000000000000000000000000000000000000000000000000008152600401610add90613527565b60405180910390fd5b600360008373ffffffffffffffffffffffffffffffffffffffff1673ffffffffffffffffffffffffffffffffffffffff168152602001908152602001600020549050919050565b606060018054610b3c90613906565b80601f0160208091040260200160405190810160405280929190818152602001828054610b6890613906565b8015610bb55780601f10610b8a57610100808354040283529160200191610bb5565b820191906000526020600020905b815481529060010190602001808311610b9857829003601f168201915b5050505050905090565b610bc7611513565b73ffffffffffffffffffffffffffffffffffffffff168273ffffffffffffffffffffffffffffffffffffffff161415610c35576040517f08c379a0000000000000000000000000000000000000000000000000000000008152600401610c2c906134c7565b60405180910390fd5b8060056000610c42611513565b73ffffffffffffffffffffffffffffffffffffffff1673ffffffffffffffffffffffffffffffffffffffff16815260200190815260200160002060008473ffffffffffffffffffffffffffffffffffffffff1673ffffffffffffffffffffffffffffffffffffffff16815260200190815260200160002060006101000a81548160ff0219169083151502179055508173ffffffffffffffffffffffffffffffffffffffff16610cef611513565b73ffffffffffffffffffffffffffffffffffffffff167f17307eab39ab6107e8899845ad3d59bd9653f200f220920489ca2b5937696c3183604051610d3491906133bc565b60405180910390a35050565b60606000610d74610d508461190e565b604051602001610d60919061325f565b604051602081830303815290604052611abb565b9050600b8054905081610d879190613981565b9050600b8181548110610dc3577f4e487b7100000000000000000000000000000000000000000000000000000000600052603260045260246000fd5b906000526020600020018054610dd890613906565b80601f0160208091040260200160405190810160405280929190818152602001828054610e0490613906565b8015610e515780601f10610e2657610100808354040283529160200191610e51565b820191906000526020600020905b815481529060010190602001808311610e3457829003601f168201915b5050505050915050919050565b610e6f610e69611513565b836115d4565b610eae576040517f08c379a0000000000000000000000000000000000000000000000000000000008152600401610ea590613647565b60405180910390fd5b610eba84848484611aee565b50505050565b60606000610ef4610ed08461190e565b604051602001610ee0919061323d565b604051602081830303815290604052611abb565b9050600c8054905081610f079190613981565b9050600c8181548110610f43577f4e487b7100000000000000000000000000000000000000000000000000000000600052603260045260246000fd5b906000526020600020018054610f5890613906565b80601f0160208091040260200160405190810160405280929190818152602001828054610f8490613906565b8015610fd15780601f10610fa657610100808354040283529160200191610fd1565b820191906000526020600020905b815481529060010190602001808311610fb457829003601f168201915b5050505050915050919050565b6060610fe9826114a7565b611028576040517f08c379a000000000000000000000000000000000000000000000000000000000815260040161101f906135a7565b60405180910390fd5b600060066000848152602001908152602001600020805461104890613906565b80601f016020809104026020016040519081016040528092919081815260200182805461107490613906565b80156110c15780601f10611096576101008083540402835291602001916110c1565b820191906000526020600020905b8154815290600101906020018083116110a457829003601f168201915b5050505050905060006110d2611b4a565b90506000815114156110e857819250505061112b565b60008251111561111d578082604051602001611105929190613194565b6040516020818303038152906040529250505061112b565b61112684611b61565b925050505b919050565b600061113c6007611c08565b90506032811061114b57600080fd5b600061115682610767565b9050600061116383610d40565b9050600061117084610ec0565b90506000838383604051602001611189939291906131b8565b604051602081830303815290604052905060006111a5866108a5565b905060006008826009856040516020016111c294939291906131e9565b60405160208183030381529060405290506000611207846111e284611c16565b6040516020016111f3929190613281565b604051602081830303815290604052611c16565b905060008160405160200161121c91906132e8565b6040516020818303038152906040529050611237338a611dd4565b6112418982611df2565b61124a816113a4565b61126d604051806060016040528060258152602001613adc602591398a33611e66565b6112776007611f05565b7febb98688741ffa4c7589bf325de30cf7becb63de567842e1ccdb6cb949fdc82c338a6040516112a8929190613393565b60405180910390a1505050505050505050565b6000600560008473ffffffffffffffffffffffffffffffffffffffff1673ffffffffffffffffffffffffffffffffffffffff16815260200190815260200160002060008373ffffffffffffffffffffffffffffffffffffffff1673ffffffffffffffffffffffffffffffffffffffff16815260200190815260200160002060009054906101000a900460ff16905092915050565b60008061135c6007611c08565b905061139d6040518060400160405280600681526020017f636f756e743a000000000000000000000000000000000000000000000000000081525082611f1b565b8091505090565b61143a816040516024016113b891906133d7565b6040516020818303038152906040527f41304fac000000000000000000000000000000000000000000000000000000007bffffffffffffffffffffffffffffffffffffffffffffffffffffffff19166020820180517bffffffffffffffffffffffffffffffffffffffffffffffffffffffff8381831617835250505050611fb7565b50565b60007f01ffc9a7000000000000000000000000000000000000000000000000000000007bffffffffffffffffffffffffffffffffffffffffffffffffffffffff1916827bffffffffffffffffffffffffffffffffffffffffffffffffffffffff1916149050919050565b60008073ffffffffffffffffffffffffffffffffffffffff166002600084815260200190815260200160002060009054906101000a900473ffffffffffffffffffffffffffffffffffffffff1673ffffffffffffffffffffffffffffffffffffffff1614159050919050565b600033905090565b816004600083815260200190815260200160002060006101000a81548173ffffffffffffffffffffffffffffffffffffffff021916908373ffffffffffffffffffffffffffffffffffffffff160217905550808273ffffffffffffffffffffffffffffffffffffffff1661158e836109c3565b73ffffffffffffffffffffffffffffffffffffffff167f8c5be1e5ebec7d5bd14f71427d1e84f3dd0314c0f7b2291e5b200ac8c7c3b92560405160405180910390a45050565b60006115df826114a7565b61161e576040517f08c379a0000000000000000000000000000000000000000000000000000000008152600401611615906134e7565b60405180910390fd5b6000611629836109c3565b90508073ffffffffffffffffffffffffffffffffffffffff168473ffffffffffffffffffffffffffffffffffffffff16148061169857508373ffffffffffffffffffffffffffffffffffffffff166116808461056a565b73ffffffffffffffffffffffffffffffffffffffff16145b806116a957506116a881856112bb565b5b91505092915050565b8273ffffffffffffffffffffffffffffffffffffffff166116d2826109c3565b73ffffffffffffffffffffffffffffffffffffffff1614611728576040517f08c379a000000000000000000000000000000000000000000000000000000000815260040161171f906135e7565b60405180910390fd5b600073ffffffffffffffffffffffffffffffffffffffff168273ffffffffffffffffffffffffffffffffffffffff161415611798576040517f08c379a000000000000000000000000000000000000000000000000000000000815260040161178f906134a7565b60405180910390fd5b6117a3838383611fe0565b6117ae60008261151b565b6001600360008573ffffffffffffffffffffffffffffffffffffffff1673ffffffffffffffffffffffffffffffffffffffff16815260200190815260200160002060008282546117fe919061381c565b925050819055506001600360008473ffffffffffffffffffffffffffffffffffffffff1673ffffffffffffffffffffffffffffffffffffffff1681526020019081526020016000206000828254611855919061373b565b92505081905550816002600083815260200190815260200160002060006101000a81548173ffffffffffffffffffffffffffffffffffffffff021916908373ffffffffffffffffffffffffffffffffffffffff160217905550808273ffffffffffffffffffffffffffffffffffffffff168473ffffffffffffffffffffffffffffffffffffffff167fddf252ad1be2c89b69c2b068fc378daa952ba7f163c4a11628f55a4df523b3ef60405160405180910390a4505050565b60606000821415611956576040518060400160405280600181526020017f30000000000000000000000000000000000000000000000000000000000000008152509050611ab6565b600082905060005b6000821461198857808061197190613938565b915050600a826119819190613791565b915061195e565b60008167ffffffffffffffff8111156119ca577f4e487b7100000000000000000000000000000000000000000000000000000000600052604160045260246000fd5b6040519080825280601f01601f1916602001820160405280156119fc5781602001600182028036833780820191505090505b5090505b60008514611aaf57600182611a15919061381c565b9150600a85611a249190613981565b6030611a30919061373b565b60f81b818381518110611a6c577f4e487b7100000000000000000000000000000000000000000000000000000000600052603260045260246000fd5b60200101907effffffffffffffffffffffffffffffffffffffffffffffffffffffffffffff1916908160001a905350600a85611aa89190613791565b9450611a00565b8093505050505b919050565b600081604051602001611ace919061317d565b6040516020818303038152906040528051906020012060001c9050919050565b611af98484846116b2565b611b0584848484611fe5565b611b44576040517f08c379a0000000000000000000000000000000000000000000000000000000008152600401611b3b90613467565b60405180910390fd5b50505050565b606060405180602001604052806000815250905090565b6060611b6c826114a7565b611bab576040517f08c379a0000000000000000000000000000000000000000000000000000000008152600401611ba290613607565b60405180910390fd5b6000611bb5611b4a565b90506000815111611bd55760405180602001604052806000815250611c00565b80611bdf8461190e565b604051602001611bf0929190613194565b6040516020818303038152906040525b915050919050565b600081600001549050919050565b60606000825190506000811415611c3f5760405180602001604052806000815250915050611dcf565b60006003600283611c50919061373b565b611c5a9190613791565b6004611c6691906137c2565b90506000602082611c77919061373b565b67ffffffffffffffff811115611cb6577f4e487b7100000000000000000000000000000000000000000000000000000000600052604160045260246000fd5b6040519080825280601f01601f191660200182016040528015611ce85781602001600182028036833780820191505090505b5090506000604051806060016040528060408152602001613b01604091399050600181016020830160005b86811015611d8c5760038101905062ffffff818a015116603f8160121c168401518060081b905060ff603f83600c1c1686015116810190508060081b905060ff603f8360061c1686015116810190508060081b905060ff603f831686015116810190508060e01b90508084526004840193505050611d13565b506003860660018114611da65760028114611db657611dc1565b613d3d60f01b6002830352611dc1565b603d60f81b60018303525b508484525050819450505050505b919050565b611dee82826040518060200160405280600081525061217c565b5050565b611dfb826114a7565b611e3a576040517f08c379a0000000000000000000000000000000000000000000000000000000008152600401611e3190613567565b60405180910390fd5b80600660008481526020019081526020016000209080519060200190611e619291906123b8565b505050565b611f00838383604051602401611e7e93929190613429565b6040516020818303038152906040527fe3849f79000000000000000000000000000000000000000000000000000000007bffffffffffffffffffffffffffffffffffffffffffffffffffffffff19166020820180517bffffffffffffffffffffffffffffffffffffffffffffffffffffffff8381831617835250505050611fb7565b505050565b6001816000016000828254019250508190555050565b611fb38282604051602401611f319291906133f9565b6040516020818303038152906040527f9710a9d0000000000000000000000000000000000000000000000000000000007bffffffffffffffffffffffffffffffffffffffffffffffffffffffff19166020820180517bffffffffffffffffffffffffffffffffffffffffffffffffffffffff8381831617835250505050611fb7565b5050565b60008151905060006a636f6e736f6c652e6c6f679050602083016000808483855afa5050505050565b505050565b60006120068473ffffffffffffffffffffffffffffffffffffffff166121d7565b1561216f578373ffffffffffffffffffffffffffffffffffffffff1663150b7a0261202f611513565b8786866040518563ffffffff1660e01b81526004016120519493929190613347565b602060405180830381600087803b15801561206b57600080fd5b505af192505050801561209c57506040513d601f19601f8201168201806040525081019061209991906126fc565b60015b61211f573d80600081146120cc576040519150601f19603f3d011682016040523d82523d6000602084013e6120d1565b606091505b50600081511415612117576040517f08c379a000000000000000000000000000000000000000000000000000000000815260040161210e90613467565b60405180910390fd5b805181602001fd5b63150b7a0260e01b7bffffffffffffffffffffffffffffffffffffffffffffffffffffffff1916817bffffffffffffffffffffffffffffffffffffffffffffffffffffffff191614915050612174565b600190505b949350505050565b61218683836121ea565b6121936000848484611fe5565b6121d2576040517f08c379a00000000000000000000000000000000000000000000000000000000081526004016121c990613467565b60405180910390fd5b505050565b600080823b905060008111915050919050565b600073ffffffffffffffffffffffffffffffffffffffff168273ffffffffffffffffffffffffffffffffffffffff16141561225a576040517f08c379a000000000000000000000000000000000000000000000000000000000815260040161225190613587565b60405180910390fd5b612263816114a7565b156122a3576040517f08c379a000000000000000000000000000000000000000000000000000000000815260040161229a90613487565b60405180910390fd5b6122af60008383611fe0565b6001600360008473ffffffffffffffffffffffffffffffffffffffff1673ffffffffffffffffffffffffffffffffffffffff16815260200190815260200160002060008282546122ff919061373b565b92505081905550816002600083815260200190815260200160002060006101000a81548173ffffffffffffffffffffffffffffffffffffffff021916908373ffffffffffffffffffffffffffffffffffffffff160217905550808273ffffffffffffffffffffffffffffffffffffffff16600073ffffffffffffffffffffffffffffffffffffffff167fddf252ad1be2c89b69c2b068fc378daa952ba7f163c4a11628f55a4df523b3ef60405160405180910390a45050565b8280546123c490613906565b90600052602060002090601f0160209004810192826123e6576000855561242d565b82601f106123ff57805160ff191683800117855561242d565b8280016001018555821561242d579182015b8281111561242c578251825591602001919060010190612411565b5b50905061243a919061243e565b5090565b5b8082111561245757600081600090555060010161243f565b5090565b600061246e612469846136b3565b613682565b90508281526020810184848401111561248657600080fd5b6124918482856138c4565b509392505050565b6000813590506124a881613a7f565b92915050565b6000813590506124bd81613a96565b92915050565b6000813590506124d281613aad565b92915050565b6000815190506124e781613aad565b92915050565b600082601f8301126124fe57600080fd5b813561250e84826020860161245b565b91505092915050565b60008135905061252681613ac4565b92915050565b60006020828403121561253e57600080fd5b600061254c84828501612499565b91505092915050565b6000806040838503121561256857600080fd5b600061257685828601612499565b925050602061258785828601612499565b9150509250929050565b6000806000606084860312156125a657600080fd5b60006125b486828701612499565b93505060206125c586828701612499565b92505060406125d686828701612517565b9150509250925092565b600080600080608085870312156125f657600080fd5b600061260487828801612499565b945050602061261587828801612499565b935050604061262687828801612517565b925050606085013567ffffffffffffffff81111561264357600080fd5b61264f878288016124ed565b91505092959194509250565b6000806040838503121561266e57600080fd5b600061267c85828601612499565b925050602061268d858286016124ae565b9150509250929050565b600080604083850312156126aa57600080fd5b60006126b885828601612499565b92505060206126c985828601612517565b9150509250929050565b6000602082840312156126e557600080fd5b60006126f3848285016124c3565b91505092915050565b60006020828403121561270e57600080fd5b600061271c848285016124d8565b91505092915050565b60006020828403121561273757600080fd5b600061274584828501612517565b91505092915050565b61275781613850565b82525050565b61276681613862565b82525050565b6000612777826136f8565b612781818561370e565b93506127918185602086016138d3565b61279a81613a6e565b840191505092915050565b60006127b082613703565b6127ba818561371f565b93506127ca8185602086016138d3565b6127d381613a6e565b840191505092915050565b60006127e982613703565b6127f38185613730565b93506128038185602086016138d3565b80840191505092915050565b6000815461281c81613906565b6128268186613730565b94506001821660008114612841576001811461285257612885565b60ff19831686528186019350612885565b61285b856136e3565b60005b8381101561287d5781548189015260018201915060208101905061285e565b838801955050505b50505092915050565b600061289b606183613730565b91507f222c20226465736372697074696f6e223a20224120686967686c79206163636c60008301527f61696d656420636f6c6c656374696f6e206f6620646f6e75742e222c2022696d60208301527f616765223a2022646174613a696d6167652f7376672b786d6c3b62617365363460408301527f2c000000000000000000000000000000000000000000000000000000000000006060830152606182019050919050565b600061294d60328361371f565b91507f4552433732313a207472616e7366657220746f206e6f6e20455243373231526560008301527f63656976657220696d706c656d656e74657200000000000000000000000000006020830152604082019050919050565b60006129b3601c8361371f565b91507f4552433732313a20746f6b656e20616c7265616479206d696e746564000000006000830152602082019050919050565b60006129f3600a83613730565b91507f54484952445f574f5244000000000000000000000000000000000000000000006000830152600a82019050919050565b6000612a3360248361371f565b91507f4552433732313a207472616e7366657220746f20746865207a65726f2061646460008301527f72657373000000000000000000000000000000000000000000000000000000006020830152604082019050919050565b6000612a9960198361371f565b91507f4552433732313a20617070726f766520746f2063616c6c6572000000000000006000830152602082019050919050565b6000612ad9600b83613730565b91507f5345434f4e445f574f52440000000000000000000000000000000000000000006000830152600b82019050919050565b6000612b19602c8361371f565b91507f4552433732313a206f70657261746f7220717565727920666f72206e6f6e657860008301527f697374656e7420746f6b656e00000000000000000000000000000000000000006020830152604082019050919050565b6000612b7f600d83613730565b91507f3c2f746578743e3c2f7376673e000000000000000000000000000000000000006000830152600d82019050919050565b6000612bbf60388361371f565b91507f4552433732313a20617070726f76652063616c6c6572206973206e6f74206f7760008301527f6e6572206e6f7220617070726f76656420666f7220616c6c00000000000000006020830152604082019050919050565b6000612c25602a8361371f565b91507f4552433732313a2062616c616e636520717565727920666f7220746865207a6560008301527f726f2061646472657373000000000000000000000000000000000000000000006020830152604082019050919050565b6000612c8b60298361371f565b91507f4552433732313a206f776e657220717565727920666f72206e6f6e657869737460008301527f656e7420746f6b656e00000000000000000000000000000000000000000000006020830152604082019050919050565b6000612cf1600583613730565b91507f646f6e75740000000000000000000000000000000000000000000000000000006000830152600582019050919050565b6000612d31602e8361371f565b91507f45524337323155524953746f726167653a2055524920736574206f66206e6f6e60008301527f6578697374656e7420746f6b656e0000000000000000000000000000000000006020830152604082019050919050565b6000612d97600283613730565b91507f227d0000000000000000000000000000000000000000000000000000000000006000830152600282019050919050565b6000612dd760208361371f565b91507f4552433732313a206d696e7420746f20746865207a65726f20616464726573736000830152602082019050919050565b6000612e1760318361371f565b91507f45524337323155524953746f726167653a2055524920717565727920666f722060008301527f6e6f6e6578697374656e7420746f6b656e0000000000000000000000000000006020830152604082019050919050565b6000612e7d602c8361371f565b91507f4552433732313a20617070726f76656420717565727920666f72206e6f6e657860008301527f697374656e7420746f6b656e00000000000000000000000000000000000000006020830152604082019050919050565b6000612ee360298361371f565b91507f4552433732313a207472616e73666572206f6620746f6b656e2074686174206960008301527f73206e6f74206f776e00000000000000000000000000000000000000000000006020830152604082019050919050565b6000612f49602f8361371f565b91507f4552433732314d657461646174613a2055524920717565727920666f72206e6f60008301527f6e6578697374656e7420746f6b656e00000000000000000000000000000000006020830152604082019050919050565b6000612faf600a83613730565b91507f7b226e616d65223a2022000000000000000000000000000000000000000000006000830152600a82019050919050565b6000612fef60218361371f565b91507f4552433732313a20617070726f76616c20746f2063757272656e74206f776e6560008301527f72000000000000000000000000000000000000000000000000000000000000006020830152604082019050919050565b6000613055600a83613730565b91507f46495253545f574f5244000000000000000000000000000000000000000000006000830152600a82019050919050565b6000613095601d83613730565b91507f646174613a6170706c69636174696f6e2f6a736f6e3b6261736536342c0000006000830152601d82019050919050565b60006130d560318361371f565b91507f4552433732313a207472616e736665722063616c6c6572206973206e6f74206f60008301527f776e6572206e6f7220617070726f7665640000000000000000000000000000006020830152604082019050919050565b600061313b600583613730565b91507f434f4c4f520000000000000000000000000000000000000000000000000000006000830152600582019050919050565b613177816138ba565b82525050565b600061318982846127de565b915081905092915050565b60006131a082856127de565b91506131ac82846127de565b91508190509392505050565b60006131c482866127de565b91506131d082856127de565b91506131dc82846127de565b9150819050949350505050565b60006131f5828761280f565b915061320182866127de565b915061320d828561280f565b915061321982846127de565b915061322482612ce4565b915061322f82612b72565b915081905095945050505050565b6000613248826129e6565b915061325482846127de565b915081905092915050565b600061326a82612acc565b915061327682846127de565b915081905092915050565b600061328c82612fa2565b915061329882856127de565b91506132a38261288e565b91506132af82846127de565b91506132ba82612d8a565b91508190509392505050565b60006132d182613048565b91506132dd82846127de565b915081905092915050565b60006132f382613088565b91506132ff82846127de565b915081905092915050565b60006133158261312e565b915061332182846127de565b915081905092915050565b6000602082019050613341600083018461274e565b92915050565b600060808201905061335c600083018761274e565b613369602083018661274e565b613376604083018561316e565b8181036060830152613388818461276c565b905095945050505050565b60006040820190506133a8600083018561274e565b6133b5602083018461316e565b9392505050565b60006020820190506133d1600083018461275d565b92915050565b600060208201905081810360008301526133f181846127a5565b905092915050565b6000604082019050818103600083015261341381856127a5565b9050613422602083018461316e565b9392505050565b6000606082019050818103600083015261344381866127a5565b9050613452602083018561316e565b61345f604083018461274e565b949350505050565b6000602082019050818103600083015261348081612940565b9050919050565b600060208201905081810360008301526134a0816129a6565b9050919050565b600060208201905081810360008301526134c081612a26565b9050919050565b600060208201905081810360008301526134e081612a8c565b9050919050565b6000602082019050818103600083015261350081612b0c565b9050919050565b6000602082019050818103600083015261352081612bb2565b9050919050565b6000602082019050818103600083015261354081612c18565b9050919050565b6000602082019050818103600083015261356081612c7e565b9050919050565b6000602082019050818103600083015261358081612d24565b9050919050565b600060208201905081810360008301526135a081612dca565b9050919050565b600060208201905081810360008301526135c081612e0a565b9050919050565b600060208201905081810360008301526135e081612e70565b9050919050565b6000602082019050818103600083015261360081612ed6565b9050919050565b6000602082019050818103600083015261362081612f3c565b9050919050565b6000602082019050818103600083015261364081612fe2565b9050919050565b60006020820190508181036000830152613660816130c8565b9050919050565b600060208201905061367c600083018461316e565b92915050565b6000604051905081810181811067ffffffffffffffff821117156136a9576136a8613a3f565b5b8060405250919050565b600067ffffffffffffffff8211156136ce576136cd613a3f565b5b601f19601f8301169050602081019050919050565b60008190508160005260206000209050919050565b600081519050919050565b600081519050919050565b600082825260208201905092915050565b600082825260208201905092915050565b600081905092915050565b6000613746826138ba565b9150613751836138ba565b9250827fffffffffffffffffffffffffffffffffffffffffffffffffffffffffffffffff03821115613786576137856139b2565b5b828201905092915050565b600061379c826138ba565b91506137a7836138ba565b9250826137b7576137b66139e1565b5b828204905092915050565b60006137cd826138ba565b91506137d8836138ba565b9250817fffffffffffffffffffffffffffffffffffffffffffffffffffffffffffffffff0483118215151615613811576138106139b2565b5b828202905092915050565b6000613827826138ba565b9150613832836138ba565b925082821015613845576138446139b2565b5b828203905092915050565b600061385b8261389a565b9050919050565b60008115159050919050565b60007fffffffff0000000000000000000000000000000000000000000000000000000082169050919050565b600073ffffffffffffffffffffffffffffffffffffffff82169050919050565b6000819050919050565b82818337600083830152505050565b60005b838110156138f15780820151818401526020810190506138d6565b83811115613900576000848401525b50505050565b6000600282049050600182168061391e57607f821691505b6020821081141561393257613931613a10565b5b50919050565b6000613943826138ba565b91507fffffffffffffffffffffffffffffffffffffffffffffffffffffffffffffffff821415613976576139756139b2565b5b600182019050919050565b600061398c826138ba565b9150613997836138ba565b9250826139a7576139a66139e1565b5b828206905092915050565b7f4e487b7100000000000000000000000000000000000000000000000000000000600052601160045260246000fd5b7f4e487b7100000000000000000000000000000000000000000000000000000000600052601260045260246000fd5b7f4e487b7100000000000000000000000000000000000000000000000000000000600052602260045260246000fd5b7f4e487b7100000000000000000000000000000000000000000000000000000000600052604160045260246000fd5b6000601f19601f8301169050919050565b613a8881613850565b8114613a9357600080fd5b50565b613a9f81613862565b8114613aaa57600080fd5b50565b613ab68161386e565b8114613ac157600080fd5b50565b613acd816138ba565b8114613ad857600080fd5b5056fe416e204e465420772f20494420257320686173206265656e206d696e74656420746f2025734142434445464748494a4b4c4d4e4f505152535455565758595a6162636465666768696a6b6c6d6e6f707172737475767778797a303132333435363738392b2fa264697066735822122031568638598eaf30d418b0bb58e7a43f8ebe7a45b072f16c15440f0f90d9f52664736f6c634300080000333c73766720786d6c6e733d27687474703a2f2f7777772e77332e6f72672f323030302f73766727207072657365727665417370656374526174696f3d27784d696e594d696e206d656574272076696577426f783d273020302033353020333530273e3c7374796c653e2e62617365207b2066696c6c3a2077686974653b20666f6e742d66616d696c793a2073657269663b20666f6e742d73697a653a20323470783b207d3c2f7374796c653e3c726563742077696474683d273130302527206865696768743d2731303025272066696c6c3d27272f3e3c7465787420783d273530252720793d273530252720636c6173733d27626173652720646f6d696e616e742d626173656c696e653d276d6964646c652720746578742d616e63686f723d276d6964646c65273e",
  "linkReferences": {},
  "deployedLinkReferences": {}
}